0001AAA       BBB       000567123       
0005BBB       LLL       000999765       
5555LLL       TTTT      000000888       
